:020000040800F2
:10000000D004002005010008830E0008CD0C000874
:10001000810E000871010008DB0E000800000000DE
:10002000000000000000000000000000870E000833
:10003000B304000800000000850E0008890E0008C7
:100040001F0100081F0100081F0100081F01000810
:100050001F0100081F0100081F0100081F01000800
:100060001F0100081F0100081F0100081F010008F0
:100070001F0100081F0100081F0100081F010008E0
:100080001F0100081F0100081F0100081F010008D0
:100090001F0100081F0100081F0100081F010008C0
:1000A0001F0100081F0100081F0100081F010008B0
:1000B0001F0100081F0100081F0100081F010008A0
:1000C0001F0100081F0100081F0100081F01000890
:1000D0001F0100081F0100081F0100081F01000880
:1000E0001F0100081F0100081F010008DFF810D0E1
:1000F00000F02CF8004800471D0F0008AFF3008007
:10010000D00400200648804706480047FEE7FEE787
:10011000FEE7FEE7FEE7FEE7FEE7FEE7FEE7FEE7B7
:10012000D90E0008ED000008D2B201E000F8012B62
:10013000491EFBD270470022F6E710B513460A4667
:1001400004461946FFF7F0FF204610BD064C074D48
:1001500006E0E06840F0010394E807009847103497
:10016000AC42F6D3FFF7C6FFBC100008DC10000855
:10017000FEE72DE9F05F0446DDE91090DDE90C654E
:10018000DDE90AC7DDE90EEB4FF00008DDF84CA011
:1001900084F800806170A2706360A4F808C0E76012
:1001A00026826563A4F838E0C4F83CB0A4F8409017
:1001B00060641298A4F84800C4F84CA01498A4F8FD
:1001C0005000282084F85500062084F852000C20A6
:1001D00084F85300142084F85400322000F06AF9A7
:1001E00000223321204600F06FF8052000F062F96C
:1001F00000223321204600F067F8052000F05AF96C
:1002000000223221204600F05FF8052000F052F96C
:1002100094F852100022204600F056F894F853103B
:100220000022204600F050F894F854100022204696
:1002300000F04AF894F855100022204600F044F8E7
:1002400000220121204600F03FF82046BDE8F05F83
:100250000022022100F038B810B50178102901D031
:1002600029B108E00022012100F0A3F803E00022F8
:10027000012100F029F8BDE81040052000F01AB96E
:1002800008B510A31B68009343788B4201D85B1E0E
:10029000D9B28378934201D85B1EDAB21DF80220EE
:1002A00011440278C9B2102A06D0002A03D141F0C5
:1002B000800100F009F808BD41F08001002200F043
:1002C00078F808BD0040145470B504460E090D4678
:1002D00012B1012A04D008E021890022606802E0FE
:1002E00021890122606800F0ECF9218F606B06F033
:1002F00001020C3400F0E5F9A18EC6F34002206B38
:1003000000F0DFF9A18FC6F38002A06B00F0D9F9ED
:10031000B4F84410F208206C00F0D3F9A188002250
:10032000206800F0CEF9012000F0C4F8A188012275
:10033000206800F0C6F9012000F0BCF8A188002276
:10034000206800F0BEF9012000F0B4F805F00102C9
:10035000A18DA06A00F0B5F9A18EC5F34002206B13
:1003600000F0AFF9A18FC5F38002A06B00F0A9F9EE
:10037000B4F84410C5F3C002206C00F0A2F9A188C3
:100380000022206800F09DF9012000F093F8A18878
:100390000122206800F095F9012000F08BF8A18877
:1003A0000022206800F08DF9BDE87040012000F0C7
:1003B00081B870B50D46044612B1012A04D008E098
:1003C00021890022606802E021890122606800F032
:1003D00078F9218B606905F001020C3400F071F9A5
:1003E000A18AC5F34002206900F06BF9A18BC5F327
:1003F0008002A06900F065F9A18CC5F3C002206AF3
:1004000000F05FF9A18DC5F30012A06A00F059F960
:10041000A18EC5F34012206B00F053F9A18FC5F3F4
:100420008012A06B00F04DF9EA09B4F84410206C7A
:1004300000F047F9A1880022206800F042F901206D
:1004400000F038F8A1880122206800F03AF9012074
:1004500000F030F8A1880022206800F032F9BDE8F1
:100460007040012000F026B80278102A04D0002A3B
:1004700005D10122FFF728BF0122FFF79ABF70477D
:1004800070B50C46054603E02846641CFFF7ECFFF8
:1004900021780029F8D170BD10B50022835C8C5CF6
:1004A000A34201D0002010BD521C062AF6DB012019
:1004B00010BD704770B5044600F008F90546601C91
:1004C00002D004480078044400F000F9401BA04228
:1004D000FAD370BD1C0000202DE9F84FDFF8B89169
:1004E000002409F1040A0AF1040B23460F270BF13B
:1004F000040EC9E00125A5402A40AA427DD1674EDD
:10050000D1F804C0ACEB0608B44532D014DCBCF121
:10051000030F3AD009DCBCF1000F2AD0BCF1010F67
:100520001CD0BCF1020F31D11DE0BCF1110F17D06E
:10053000BCF1120F2AD119E0B8F5881F19D006DCDA
:10054000B8F5803F15D0B8F5801F1FD111E0B8F580
:10055000001F0ED0B8F5041F18D10AE0CB6815E0D3
:10056000CB681B1D12E0CB6808330FE0CB680C335F
:100570000CE08B682BB1012B4FF0080303D04561D1
:1005800004E0042302E0056100E00023FF2A01D813
:10059000064601E000F104064FEA840501D9A5F101
:1005A0002005D6F8008007FA05FC28EA0C0803FAB3
:1005B00005F548EA0508C6F800804D68ED0062D5EB
:1005C000374DAE6946F00106AE61AD6924F0030611
:1005D00005F001050095334D06EB050CDCF80850DD
:1005E000A607360F07FA06F825EA0805DFF8B880EF
:1005F000404503D14FF0000817E044E0DFF8AC803D
:10060000404502D14FF001080FE0DFF8A4804045DB
:1006100002D14FF0020808E0DFF89880404502D18F
:100620004FF0030801E04FF0040808FA06F848EA22
:100630000508CCF808804D68D9F80060ED034D46F8
:1006400001D5164300E096432E604D68DAF800604D
:10065000AD03554601D5164300E096432E604D6824
:10066000DBF80060ED025D4601D5164300E09643DD
:100670002E604D68DEF80060AD02754601D5164368
:1006800000E096432E60641C0D682A46E5407FF426
:1006900031AFBDE8F88F00000004014000001110E8
:1006A000001002400000014000080140000C014021
:1006B00000100140001401408068084000D0012073
:1006C00070470AB1016170470904FBE7014880687F
:1006D000704700001C000020024881680278114425
:1006E000816070471C000020074810B5016841F088
:1006F00010010160032000F067F8002000F006F808
:1007000000F024F8002010BD0020024070B50D4D0F
:1007100004464FF47A712878B1FBF0F00A49096871
:10072000B1FBF0F000F0BEFA48B9102C07D200225D
:100730002146501E00F028F800206C6070BD01209A
:1007400070BD00001C000020280000200C4808B5E7
:10075000816941F001018161816901F0010100912C
:10076000C16941F08051C161C06900F080500090C2
:100770000448416821F0E06141F00071416008BD2A
:100780000010024000000140F0B40E4B1B680C4604
:10079000C3F30223C3F10705042D00D90425191D55
:1007A000072901D2002300E0DB1E012606FA05F12D
:1007B000491E214099409E40761E16403143F0BCB0
:1007C00000F08CBB0CED00E0064900F00702086861
:1007D0004FF6FF03184040EA0220034A1043086026
:1007E000704700000CED00E00000FA052DE9F0472D
:1007F0000F46050061D0434E306800F00700B84254
:1008000009D2306820F0070038433060306800F0CB
:100810000700B84251D128683B4C810712D54007E8
:1008200003D5606840F4E06060602878000703D575
:10083000606840F4605060606068A96820F0F00073
:10084000084360602878C00728D06868012810D065
:100850002168022810D0890700292EDA616821F06A
:10086000030101436160FFF731FF804641F288399F
:100870000DE021688903EFE78901EDE7FFF726FF27
:10088000A0EB0801494502D90320BDE8F087606864
:10089000696800F00C00B0EB810FEFD1306800F018
:1008A0000700B8420BD9306820F0070038433060A9
:1008B000306800F00700B84201D00120E5E7287851
:1008C000400705D56068E96820F4E060084360608F
:1008D0002878000706D56068296920F4605040EA4E
:1008E000C100606000F018F86168084AC1F30311A4
:1008F000515CC8400649086006480068FFF706FFDB
:100900000020C2E70020024000100240AC100008A6
:10091000280000202000002012A185B00FC98DE81A
:100920000F0014A0144A006804905168134801F0A5
:100930000C03042B10D0082B0ED1C1F38343C90341
:100940001DF803000AD5516804AAC1F34041515C67
:100950000A4A5043B0FBF1F005B0704708494843DC
:10096000FAE7000002030405060708090A0B0C0D4C
:100970000E0F1010010200000010024000127A0059
:1009800000093D002DE9F84F040070D02078C04DDB
:10099000C00749D06868C0F38100012807D06868A3
:1009A000C0F38100022809D16868C00306D5286811
:1009B000800339D560680028E7D035E06068B0F57D
:1009C000803F0BD010B1B0F5A02F11D0286820F4D3
:1009D00080302860286820F4802002E0286840F4F5
:1009E00080302860606890B1FFF770FE06460AE02C
:1009F000286840F480202860F0E700BFFFF766FE1B
:100A0000801B642873D828688003F7D50CE0FFF7B3
:100A10005DFE064605E000BFFFF758FE801B642818
:100A2000F0D828688003F7D420789A4E80074FF0DA
:100A300001094FF0000839D5686810F00C0F07D095
:100A40006868C0F38100022809D16868C00306D431
:100A50002868800714D52069012808D110E0206992
:100A6000B0B1C6F80090FFF731FE074605E00AE195
:100A7000FFF72CFEC01B0228C4D828688007F7D5D2
:100A80002868616920F0F80040EAC10028600DE0A4
:100A9000C6F80080FFF71AFE074604E0FFF716FECF
:100AA000C01B022823D828688007F7D420780007C5
:100AB0002CD57948A169D9B1C0F80090FFF706FE9E
:100AC000074604E0FFF702FEC01B02280FD8686A41
:100AD0008007F7D571484FF4FA510068B0FBF1F088
:100AE000009000BF0098411E0091FAD20EE080E015
:100AF000C0F80080FFF7EAFD074604E0FFF7E6FDD7
:100B0000C01B022875D8686A8007F7D42078400790
:100B100060D5E8690027C00008D4E86940F080503B
:100B2000E861E869012700F0805000905C480168A6
:100B3000C90513D40168834641F480710160FFF751
:100B4000C5FD824606E000BFFFF7C0FDA0EB0A002E
:100B500064284ED8DBF80000C005F5D5E068012810
:100B60000AD008B1052813D0286A20F001002862B5
:100B7000286A20F0040002E0286A40F001002862A0
:100B8000E06841F2883B98B1FFF7A0FD82460BE098
:100B9000286A40F004002862EEE700BFFFF796FDE8
:100BA000A0EB0A0159455AD8286A8007F6D50CE00F
:100BB000FFF78CFD824605E0FFF788FDA0EB0A01F8
:100BC00059454CD8286A8007F6D41FB1E86920F04F
:100BD0008050E861E06988B36968C1F38101022946
:100BE00044D00228C6F8608004D0FFF76FFD0446A9
:100BF00038E034E0FFF76AFD074604E0FFF766FDE2
:100C0000C01B02282BD828688001F7D4206AB0F5D1
:100C1000803F05D16868A16820F40030084368600F
:100C2000D4E908010843696821F474110843686035
:100C3000C6F86090FFF74AFD044606E025E000BFD5
:100C4000FFF744FD001B022809D828688001F7D56A
:100C50001BE000BFFFF73AFD001B022802D903206A
:100C6000BDE8F88F28688001F4D40EE00128F7D0A1
:100C70006868226A00F48031914204D1616A00F40C
:100C80007010884201D00120EAE70020E8E7000068
:100C9000001002400000424280044242280000202E
:100CA0000070004010B5401EB0F1807F01D30120DC
:100CB00010BD4FF0E02460610F21601700F00EF9C5
:100CC0000020A06107202061002010BDFEE7000089
:100CD0002DE9F05F0446DDE913A0DDE90F65DDE9EC
:100CE0000DC7DDE90A8BDDF848E0DDF83090C4F887
:100CF00024E044F8286B84E80503183CA4E80818AD
:100D000064E807751198C4E9010A1598E0600020AD
:100D10005FF0000202EB42035D18234403442D5CA4
:100D2000521C83F83850042AF4DB401C0328EFDB04
:100D3000208A012281B2E06AFFF7C3FCA08A012267
:100D400081B2206BFFF7BDFC208B012281B2606B6A
:100D5000BDE8F05FFFF7B5BC2DE9F0410546002086
:100D600085F844004FEA000605EB86070022388A22
:100D700081B2F86AFFF7A5FC5FF0000435F82400A3
:100D800081B205EB8400C069FFF796FC70B1641C6A
:100D9000042CF3DB388A012281B2F86AFFF791FC58
:100DA000761C032EE0DB0020BDE8F0813220FFF747
:100DB00081FB05EB840700BF35F8240081B2F86998
:100DC000FFF77AFC0028F7D004EB440028443044B5
:100DD00090F8380085F84400E6E700002DE9F0417E
:100DE00086B00024234800940194029403948169FE
:100DF00041F020018161816901F020010491816944
:100E000041F004018161816901F00401049181696B
:100E100041F0080181618069174F00F008000490DB
:100E2000012270213846FFF74CFCDFF85080002289
:100E3000F5214046FFF745FC0F2001258DE83100E4
:100E400069463846FFF748FB70200226CDE90005C9
:100E5000CDE9024669463846FFF73EFBF520CDE96D
:100E60000005CDE9024669464046FFF735FB06B06E
:100E7000BDE8F0810010024000080140000C014074
:100E8000FEE7FEE770477047FFF726BC30B58FB02E
:100E900028216846FFF74FF914210AA8FFF74BF9FC
:100EA00001252804CDE90050002407946846FFF787
:100EB00069FD08B172B6FEE70F200A90CDE90B5428
:100EC0000D9400210AA80E94FFF790FC002801D091
:100ED00072B6FEE70FB030BD7047FEE70907090E96
:100EE000002804DB00F1E02080F80014704700F0D7
:100EF0000F0000F1E02080F8141D704702E008C8E0
:100F0000121F08C1002AFAD170477047002001E083
:100F100001C1121F002AFBD1704700008CB0FFF7FF
:100F2000E3FBFFF7B3FFFFF759FF484B4024CDE940
:100F300007348020CDE909301020CDE903300127A6
:100F400020250097CDE905350426CDE90136014677
:100F500002223F48FFF70DF93E4A0820CDE90A205A
:100F60000220CDE90826CDE90620CDE90427CDE908
:100F700000253748CDE90224102337495830FFF7C0
:100F8000A7FE354C0D3C3248FFF766F900252A468E
:100F900029462F48FFF774F930A12D48FFF770FA62
:100FA000012200212A48FFF76BF92B4EB61F284873
:100FB0005830FFF7D1FEA0F130012070092906D882
:100FC00001462348FFF750FA207870556D1C2078B1
:100FD0000028ECD03038092801D8062DE7DBC820DE
:100FE000FFF768FA1C490C39881DFFF755FA0028ED
:100FF000174811D0FFF730F9002211461448FFF7C7
:101000003FF91AA11248FFF73BFA012200211048CC
:10101000FFF736F918A110E0FFF71EF9002211467C
:101020000B48FFF72DF919A10948FFF729FA01220A
:1010300000210748FFF724F917A10548FFF720FA18
:101040004FF4FA60FFF736FA9DE70000000C01400C
:101050002C000020000801400D00002057656C6343
:101060006F6D6520686F6D650000000020202020F6
:10107000414C5249474854004E69636520746F20C3
:101080006D65657420796F750000000020202020B8
:10109000202057524F4E470020456E7465722050F5
:1010A000617373776F72642000000000000000001D
:1010B000000000000102030406070809DC10000814
:1010C000000000202C000000FC0E000808110008A1
:1010D0002C000020A40400000C0F00080031323363
:1010E00034353600000000000031323334353637F5
:1010F00038392A30230000000100000010000000F1
:08110000000000000024F400CF
:04000005080000ED02
:00000001FF
